{
  "address": "0xaF2d7911d58A557a33d74E61773e26Fdae508b5F",
  "abi": [
    {
      "inputs": [],
      "stateMutability": "nonpayable",
      "type": "constructor"
    },
    {
      "inputs": [
        {
          "internalType": "address",
          "name": "sender",
          "type": "address"
        },
        {
          "internalType": "uint256",
          "name": "tokenId",
          "type": "uint256"
        },
        {
          "internalType": "address",
          "name": "owner",
          "type": "address"
        }
      ],
      "name": "ERC721IncorrectOwner",
      "type": "error"
    },
    {
      "inputs": [
        {
          "internalType": "address",
          "name": "operator",
          "type": "address"
        },
        {
          "internalType": "uint256",
          "name": "tokenId",
          "type": "uint256"
        }
      ],
      "name": "ERC721InsufficientApproval",
      "type": "error"
    },
    {
      "inputs": [
        {
          "internalType": "address",
          "name": "approver",
          "type": "address"
        }
      ],
      "name": "ERC721InvalidApprover",
      "type": "error"
    },
    {
      "inputs": [
        {
          "internalType": "address",
          "name": "operator",
          "type": "address"
        }
      ],
      "name": "ERC721InvalidOperator",
      "type": "error"
    },
    {
      "inputs": [
        {
          "internalType": "address",
          "name": "owner",
          "type": "address"
        }
      ],
      "name": "ERC721InvalidOwner",
      "type": "error"
    },
    {
      "inputs": [
        {
          "internalType": "address",
          "name": "receiver",
          "type": "address"
        }
      ],
      "name": "ERC721InvalidReceiver",
      "type": "error"
    },
    {
      "inputs": [
        {
          "internalType": "address",
          "name": "sender",
          "type": "address"
        }
      ],
      "name": "ERC721InvalidSender",
      "type": "error"
    },
    {
      "inputs": [
        {
          "internalType": "uint256",
          "name": "tokenId",
          "type": "uint256"
        }
      ],
      "name": "ERC721NonexistentToken",
      "type": "error"
    },
    {
      "anonymous": false,
      "inputs": [
        {
          "indexed": true,
          "internalType": "address",
          "name": "owner",
          "type": "address"
        },
        {
          "indexed": true,
          "internalType": "address",
          "name": "approved",
          "type": "address"
        },
        {
          "indexed": true,
          "internalType": "uint256",
          "name": "tokenId",
          "type": "uint256"
        }
      ],
      "name": "Approval",
      "type": "event"
    },
    {
      "anonymous": false,
      "inputs": [
        {
          "indexed": true,
          "internalType": "address",
          "name": "owner",
          "type": "address"
        },
        {
          "indexed": true,
          "internalType": "address",
          "name": "operator",
          "type": "address"
        },
        {
          "indexed": false,
          "internalType": "bool",
          "name": "approved",
          "type": "bool"
        }
      ],
      "name": "ApprovalForAll",
      "type": "event"
    },
    {
      "anonymous": false,
      "inputs": [
        {
          "indexed": true,
          "internalType": "address",
          "name": "from",
          "type": "address"
        },
        {
          "indexed": true,
          "internalType": "address",
          "name": "to",
          "type": "address"
        },
        {
          "indexed": true,
          "internalType": "uint256",
          "name": "tokenId",
          "type": "uint256"
        }
      ],
      "name": "Transfer",
      "type": "event"
    },
    {
      "inputs": [
        {
          "internalType": "address",
          "name": "to",
          "type": "address"
        },
        {
          "internalType": "uint256",
          "name": "tokenId",
          "type": "uint256"
        }
      ],
      "name": "approve",
      "outputs": [],
      "stateMutability": "nonpayable",
      "type": "function"
    },
    {
      "inputs": [
        {
          "internalType": "address",
          "name": "owner",
          "type": "address"
        }
      ],
      "name": "balanceOf",
      "outputs": [
        {
          "internalType": "uint256",
          "name": "",
          "type": "uint256"
        }
      ],
      "stateMutability": "view",
      "type": "function"
    },
    {
      "inputs": [],
      "name": "currentTokenId",
      "outputs": [
        {
          "internalType": "uint256",
          "name": "",
          "type": "uint256"
        }
      ],
      "stateMutability": "view",
      "type": "function"
    },
    {
      "inputs": [
        {
          "internalType": "uint256",
          "name": "tokenId",
          "type": "uint256"
        }
      ],
      "name": "getApproved",
      "outputs": [
        {
          "internalType": "address",
          "name": "",
          "type": "address"
        }
      ],
      "stateMutability": "view",
      "type": "function"
    },
    {
      "inputs": [
        {
          "internalType": "address",
          "name": "owner",
          "type": "address"
        },
        {
          "internalType": "address",
          "name": "operator",
          "type": "address"
        }
      ],
      "name": "isApprovedForAll",
      "outputs": [
        {
          "internalType": "bool",
          "name": "",
          "type": "bool"
        }
      ],
      "stateMutability": "view",
      "type": "function"
    },
    {
      "inputs": [
        {
          "internalType": "address",
          "name": "receipient",
          "type": "address"
        }
      ],
      "name": "mint",
      "outputs": [
        {
          "internalType": "uint256",
          "name": "",
          "type": "uint256"
        }
      ],
      "stateMutability": "nonpayable",
      "type": "function"
    },
    {
      "inputs": [],
      "name": "name",
      "outputs": [
        {
          "internalType": "string",
          "name": "",
          "type": "string"
        }
      ],
      "stateMutability": "view",
      "type": "function"
    },
    {
      "inputs": [
        {
          "internalType": "uint256",
          "name": "tokenId",
          "type": "uint256"
        }
      ],
      "name": "ownerOf",
      "outputs": [
        {
          "internalType": "address",
          "name": "",
          "type": "address"
        }
      ],
      "stateMutability": "view",
      "type": "function"
    },
    {
      "inputs": [
        {
          "internalType": "address",
          "name": "from",
          "type": "address"
        },
        {
          "internalType": "address",
          "name": "to",
          "type": "address"
        },
        {
          "internalType": "uint256",
          "name": "tokenId",
          "type": "uint256"
        }
      ],
      "name": "safeTransferFrom",
      "outputs": [],
      "stateMutability": "nonpayable",
      "type": "function"
    },
    {
      "inputs": [
        {
          "internalType": "address",
          "name": "from",
          "type": "address"
        },
        {
          "internalType": "address",
          "name": "to",
          "type": "address"
        },
        {
          "internalType": "uint256",
          "name": "tokenId",
          "type": "uint256"
        },
        {
          "internalType": "bytes",
          "name": "data",
          "type": "bytes"
        }
      ],
      "name": "safeTransferFrom",
      "outputs": [],
      "stateMutability": "nonpayable",
      "type": "function"
    },
    {
      "inputs": [
        {
          "internalType": "address",
          "name": "operator",
          "type": "address"
        },
        {
          "internalType": "bool",
          "name": "approved",
          "type": "bool"
        }
      ],
      "name": "setApprovalForAll",
      "outputs": [],
      "stateMutability": "nonpayable",
      "type": "function"
    },
    {
      "inputs": [
        {
          "internalType": "bytes4",
          "name": "interfaceId",
          "type": "bytes4"
        }
      ],
      "name": "supportsInterface",
      "outputs": [
        {
          "internalType": "bool",
          "name": "",
          "type": "bool"
        }
      ],
      "stateMutability": "view",
      "type": "function"
    },
    {
      "inputs": [],
      "name": "symbol",
      "outputs": [
        {
          "internalType": "string",
          "name": "",
          "type": "string"
        }
      ],
      "stateMutability": "view",
      "type": "function"
    },
    {
      "inputs": [
        {
          "internalType": "uint256",
          "name": "tokenId",
          "type": "uint256"
        }
      ],
      "name": "tokenURI",
      "outputs": [
        {
          "internalType": "string",
          "name": "",
          "type": "string"
        }
      ],
      "stateMutability": "view",
      "type": "function"
    },
    {
      "inputs": [
        {
          "internalType": "address",
          "name": "from",
          "type": "address"
        },
        {
          "internalType": "address",
          "name": "to",
          "type": "address"
        },
        {
          "internalType": "uint256",
          "name": "tokenId",
          "type": "uint256"
        }
      ],
      "name": "transferFrom",
      "outputs": [],
      "stateMutability": "nonpayable",
      "type": "function"
    }
  ],
  "transactionHash": "0x99c334fa752ab3ad1fa4df8652e98e17fcd471ccd0a50760bda1c765883a3e14",
  "args": [],
  "numDeployments": 1,
  "solcInputHash": "af70de301aa8026b99a6978fed95f75e",
  "bytecode": "0x60806040523480156200001157600080fd5b506040518060400160405280600b81526020017f4e46545f4f4e5f4c49534b0000000000000000000000000000000000000000008152506040518060400160405280600381526020017f4e4654000000000000000000000000000000000000000000000000000000000081525081600090816200008f919062000324565b508060019081620000a1919062000324565b5050506200040b565b600081519050919050565b7f4e487b7100000000000000000000000000000000000000000000000000000000600052604160045260246000fd5b7f4e487b7100000000000000000000000000000000000000000000000000000000600052602260045260246000fd5b600060028204905060018216806200012c57607f821691505b602082108103620001425762000141620000e4565b5b50919050565b60008190508160005260206000209050919050565b60006020601f8301049050919050565b600082821b905092915050565b600060088302620001ac7fffffffffffffffffffffffffffffffffffffffffffffffffffffffffffffffff826200016d565b620001b886836200016d565b95508019841693508086168417925050509392505050565b6000819050919050565b6000819050919050565b600062000205620001ff620001f984620001d0565b620001da565b620001d0565b9050919050565b6000819050919050565b6200022183620001e4565b6200023962000230826200020c565b8484546200017a565b825550505050565b600090565b6200025062000241565b6200025d81848462000216565b505050565b5b8181101562000285576200027960008262000246565b60018101905062000263565b5050565b601f821115620002d4576200029e8162000148565b620002a9846200015d565b81016020851015620002b9578190505b620002d1620002c8856200015d565b83018262000262565b50505b505050565b600082821c905092915050565b6000620002f960001984600802620002d9565b1980831691505092915050565b6000620003148383620002e6565b9150826002028217905092915050565b6200032f82620000aa565b67ffffffffffffffff8111156200034b576200034a620000b5565b5b62000357825462000113565b6200036482828562000289565b600060209050601f8311600181146200039c576000841562000387578287015190505b62000393858262000306565b86555062000403565b601f198416620003ac8662000148565b60005b82811015620003d657848901518255600182019150602085019450602081019050620003af565b86831015620003f65784890151620003f2601f891682620002e6565b8355505b6001600288020188555050505b505050505050565b611ecc806200041b6000396000f3fe608060405234801561001057600080fd5b50600436106100f45760003560e01c80636352211e11610097578063a22cb46511610066578063a22cb46514610297578063b88d4fde146102b3578063c87b56dd146102cf578063e985e9c5146102ff576100f4565b80636352211e146101e95780636a6278421461021957806370a082311461024957806395d89b4114610279576100f4565b8063081812fc116100d3578063081812fc14610165578063095ea7b31461019557806323b872dd146101b157806342842e0e146101cd576100f4565b80629a9b7b146100f957806301ffc9a71461011757806306fdde0314610147575b600080fd5b61010161032f565b60405161010e919061164c565b60405180910390f35b610131600480360381019061012c91906116d3565b610335565b60405161013e919061171b565b60405180910390f35b61014f610417565b60405161015c91906117c6565b60405180910390f35b61017f600480360381019061017a9190611814565b6104a9565b60405161018c9190611882565b60405180910390f35b6101af60048036038101906101aa91906118c9565b6104c5565b005b6101cb60048036038101906101c69190611909565b6104db565b005b6101e760048036038101906101e29190611909565b6105dd565b005b61020360048036038101906101fe9190611814565b6105fd565b6040516102109190611882565b60405180910390f35b610233600480360381019061022e919061195c565b61060f565b604051610240919061164c565b60405180910390f35b610263600480360381019061025e919061195c565b61063c565b604051610270919061164c565b60405180910390f35b6102816106f6565b60405161028e91906117c6565b60405180910390f35b6102b160048036038101906102ac91906119b5565b610788565b005b6102cd60048036038101906102c89190611b2a565b61079e565b005b6102e960048036038101906102e49190611814565b6107bb565b6040516102f691906117c6565b60405180910390f35b61031960048036038101906103149190611bad565b610824565b604051610326919061171b565b60405180910390f35b60065481565b60007f80ac58cd000000000000000000000000000000000000000000000000000000007bffffffffffffffffffffffffffffffffffffffffffffffffffffffff1916827bffffffffffffffffffffffffffffffffffffffffffffffffffffffff1916148061040057507f5b5e139f000000000000000000000000000000000000000000000000000000007bffffffffffffffffffffffffffffffffffffffffffffffffffffffff1916827bffffffffffffffffffffffffffffffffffffffffffffffffffffffff1916145b80610410575061040f826108b8565b5b9050919050565b60606000805461042690611c1c565b80601f016020809104026020016040519081016040528092919081815260200182805461045290611c1c565b801561049f5780601f106104745761010080835404028352916020019161049f565b820191906000526020600020905b81548152906001019060200180831161048257829003601f168201915b5050505050905090565b60006104b482610922565b506104be826109aa565b9050919050565b6104d782826104d26109e7565b6109ef565b5050565b600073ffffffffffffffffffffffffffffffffffffffff168273ffffffffffffffffffffffffffffffffffffffff160361054d5760006040517f64a0ae920000000000000000000000000000000000000000000000000000000081526004016105449190611882565b60405180910390fd5b6000610561838361055c6109e7565b610a01565b90508373ffffffffffffffffffffffffffffffffffffffff168173ffffffffffffffffffffffffffffffffffffffff16146105d7578382826040517f64283d7b0000000000000000000000000000000000000000000000000000000081526004016105ce93929190611c4d565b60405180910390fd5b50505050565b6105f88383836040518060200160405280600081525061079e565b505050565b600061060882610922565b9050919050565b60008060066000815461062190611cb3565b91905081905590506106338382610c1b565b80915050919050565b60008073ffffffffffffffffffffffffffffffffffffffff168273ffffffffffffffffffffffffffffffffffffffff16036106af5760006040517f89c62b640000000000000000000000000000000000000000000000000000000081526004016106a69190611882565b60405180910390fd5b600360008373ffffffffffffffffffffffffffffffffffffffff1673ffffffffffffffffffffffffffffffffffffffff168152602001908152602001600020549050919050565b60606001805461070590611c1c565b80601f016020809104026020016040519081016040528092919081815260200182805461073190611c1c565b801561077e5780601f106107535761010080835404028352916020019161077e565b820191906000526020600020905b81548152906001019060200180831161076157829003601f168201915b5050505050905090565b61079a6107936109e7565b8383610c39565b5050565b6107a98484846104db565b6107b584848484610da8565b50505050565b60606107c682610922565b5060006107d1610f5f565b905060008151116107f1576040518060200160405280600081525061081c565b806107fb84610f76565b60405160200161080c929190611d37565b6040516020818303038152906040525b915050919050565b6000600560008473ffffffffffffffffffffffffffffffffffffffff1673ffffffffffffffffffffffffffffffffffffffff16815260200190815260200160002060008373ffffffffffffffffffffffffffffffffffffffff1673ffffffffffffffffffffffffffffffffffffffff16815260200190815260200160002060009054906101000a900460ff16905092915050565b60007f01ffc9a7000000000000000000000000000000000000000000000000000000007bffffffffffffffffffffffffffffffffffffffffffffffffffffffff1916827bffffffffffffffffffffffffffffffffffffffffffffffffffffffff1916149050919050565b60008061092e83611044565b9050600073ffffffffffffffffffffffffffffffffffffffff168173ffffffffffffffffffffffffffffffffffffffff16036109a157826040517f7e273289000000000000000000000000000000000000000000000000000000008152600401610998919061164c565b60405180910390fd5b80915050919050565b60006004600083815260200190815260200160002060009054906101000a900473ffffffffffffffffffffffffffffffffffffffff169050919050565b600033905090565b6109fc8383836001611081565b505050565b600080610a0d84611044565b9050600073ffffffffffffffffffffffffffffffffffffffff168373ffffffffffffffffffffffffffffffffffffffff1614610a4f57610a4e818486611246565b5b600073ffffffffffffffffffffffffffffffffffffffff168173ffffffffffffffffffffffffffffffffffffffff1614610ae057610a91600085600080611081565b6001600360008373ffffffffffffffffffffffffffffffffffffffff1673ffffffffffffffffffffffffffffffffffffffff168152602001908152602001600020600082825403925050819055505b600073ffffffffffffffffffffffffffffffffffffffff168573ffffffffffffffffffffffffffffffffffffffff1614610b63576001600360008773ffffffffffffffffffffffffffffffffffffffff1673ffffffffffffffffffffffffffffffffffffffff168152602001908152602001600020600082825401925050819055505b846002600086815260200190815260200160002060006101000a81548173ffffffffffffffffffffffffffffffffffffffff021916908373ffffffffffffffffffffffffffffffffffffffff160217905550838573ffffffffffffffffffffffffffffffffffffffff168273ffffffffffffffffffffffffffffffffffffffff167fddf252ad1be2c89b69c2b068fc378daa952ba7f163c4a11628f55a4df523b3ef60405160405180910390a4809150509392505050565b610c3582826040518060200160405280600081525061130a565b5050565b600073ffffffffffffffffffffffffffffffffffffffff168273ffffffffffffffffffffffffffffffffffffffff1603610caa57816040517f5b08ba18000000000000000000000000000000000000000000000000000000008152600401610ca19190611882565b60405180910390fd5b80600560008573ffffffffffffffffffffffffffffffffffffffff1673ffffffffffffffffffffffffffffffffffffffff16815260200190815260200160002060008473ffffffffffffffffffffffffffffffffffffffff1673ffffffffffffffffffffffffffffffffffffffff16815260200190815260200160002060006101000a81548160ff0219169083151502179055508173ffffffffffffffffffffffffffffffffffffffff168373ffffffffffffffffffffffffffffffffffffffff167f17307eab39ab6107e8899845ad3d59bd9653f200f220920489ca2b5937696c3183604051610d9b919061171b565b60405180910390a3505050565b60008373ffffffffffffffffffffffffffffffffffffffff163b1115610f59578273ffffffffffffffffffffffffffffffffffffffff1663150b7a02610dec6109e7565b8685856040518563ffffffff1660e01b8152600401610e0e9493929190611db0565b6020604051808303816000875af1925050508015610e4a57506040513d601f19601f82011682018060405250810190610e479190611e11565b60015b610ece573d8060008114610e7a576040519150601f19603f3d011682016040523d82523d6000602084013e610e7f565b606091505b506000815103610ec657836040517f64a0ae92000000000000000000000000000000000000000000000000000000008152600401610ebd9190611882565b60405180910390fd5b805181602001fd5b63150b7a0260e01b7bffffffffffffffffffffffffffffffffffffffffffffffffffffffff1916817bffffffffffffffffffffffffffffffffffffffffffffffffffffffff191614610f5757836040517f64a0ae92000000000000000000000000000000000000000000000000000000008152600401610f4e9190611882565b60405180910390fd5b505b50505050565b606060405180602001604052806000815250905090565b606060006001610f8584611326565b01905060008167ffffffffffffffff811115610fa457610fa36119ff565b5b6040519080825280601f01601f191660200182016040528015610fd65781602001600182028036833780820191505090505b509050600082602001820190505b600115611039578080600190039150507f3031323334353637383961626364656600000000000000000000000000000000600a86061a8153600a858161102d5761102c611e3e565b5b04945060008503610fe4575b819350505050919050565b60006002600083815260200190815260200160002060009054906101000a900473ffffffffffffffffffffffffffffffffffffffff169050919050565b80806110ba5750600073ffffffffffffffffffffffffffffffffffffffff168273ffffffffffffffffffffffffffffffffffffffff1614155b156111ee5760006110ca84610922565b9050600073ffffffffffffffffffffffffffffffffffffffff168373ffffffffffffffffffffffffffffffffffffffff161415801561113557508273ffffffffffffffffffffffffffffffffffffffff168173ffffffffffffffffffffffffffffffffffffffff1614155b801561114857506111468184610824565b155b1561118a57826040517fa9fbf51f0000000000000000000000000000000000000000000000000000000081526004016111819190611882565b60405180910390fd5b81156111ec57838573ffffffffffffffffffffffffffffffffffffffff168273ffffffffffffffffffffffffffffffffffffffff167f8c5be1e5ebec7d5bd14f71427d1e84f3dd0314c0f7b2291e5b200ac8c7c3b92560405160405180910390a45b505b836004600085815260200190815260200160002060006101000a81548173ffffffffffffffffffffffffffffffffffffffff021916908373ffffffffffffffffffffffffffffffffffffffff16021790555050505050565b611251838383611479565b61130557600073ffffffffffffffffffffffffffffffffffffffff168373ffffffffffffffffffffffffffffffffffffffff16036112c657806040517f7e2732890000000000000000000000000000000000000000000000000000000081526004016112bd919061164c565b60405180910390fd5b81816040517f177e802f0000000000000000000000000000000000000000000000000000000081526004016112fc929190611e6d565b60405180910390fd5b505050565b611314838361153a565b6113216000848484610da8565b505050565b600080600090507a184f03e93ff9f4daa797ed6e38ed64bf6a1f0100000000000000008310611384577a184f03e93ff9f4daa797ed6e38ed64bf6a1f010000000000000000838161137a57611379611e3e565b5b0492506040810190505b6d04ee2d6d415b85acef810000000083106113c1576d04ee2d6d415b85acef810000000083816113b7576113b6611e3e565b5b0492506020810190505b662386f26fc1000083106113f057662386f26fc1000083816113e6576113e5611e3e565b5b0492506010810190505b6305f5e1008310611419576305f5e100838161140f5761140e611e3e565b5b0492506008810190505b612710831061143e57612710838161143457611433611e3e565b5b0492506004810190505b60648310611461576064838161145757611456611e3e565b5b0492506002810190505b600a8310611470576001810190505b80915050919050565b60008073ffffffffffffffffffffffffffffffffffffffff168373ffffffffffffffffffffffffffffffffffffffff161415801561153157508273ffffffffffffffffffffffffffffffffffffffff168473ffffffffffffffffffffffffffffffffffffffff1614806114f257506114f18484610824565b5b8061153057508273ffffffffffffffffffffffffffffffffffffffff16611518836109aa565b73ffffffffffffffffffffffffffffffffffffffff16145b5b90509392505050565b600073ffffffffffffffffffffffffffffffffffffffff168273ffffffffffffffffffffffffffffffffffffffff16036115ac5760006040517f64a0ae920000000000000000000000000000000000000000000000000000000081526004016115a39190611882565b60405180910390fd5b60006115ba83836000610a01565b9050600073ffffffffffffffffffffffffffffffffffffffff168173ffffffffffffffffffffffffffffffffffffffff161461162e5760006040517f73c6ac6e0000000000000000000000000000000000000000000000000000000081526004016116259190611882565b60405180910390fd5b505050565b6000819050919050565b61164681611633565b82525050565b6000602082019050611661600083018461163d565b92915050565b6000604051905090565b600080fd5b600080fd5b60007fffffffff0000000000000000000000000000000000000000000000000000000082169050919050565b6116b08161167b565b81146116bb57600080fd5b50565b6000813590506116cd816116a7565b92915050565b6000602082840312156116e9576116e8611671565b5b60006116f7848285016116be565b91505092915050565b60008115159050919050565b61171581611700565b82525050565b6000602082019050611730600083018461170c565b92915050565b600081519050919050565b600082825260208201905092915050565b60005b83811015611770578082015181840152602081019050611755565b60008484015250505050565b6000601f19601f8301169050919050565b600061179882611736565b6117a28185611741565b93506117b2818560208601611752565b6117bb8161177c565b840191505092915050565b600060208201905081810360008301526117e0818461178d565b905092915050565b6117f181611633565b81146117fc57600080fd5b50565b60008135905061180e816117e8565b92915050565b60006020828403121561182a57611829611671565b5b6000611838848285016117ff565b91505092915050565b600073ffffffffffffffffffffffffffffffffffffffff82169050919050565b600061186c82611841565b9050919050565b61187c81611861565b82525050565b60006020820190506118976000830184611873565b92915050565b6118a681611861565b81146118b157600080fd5b50565b6000813590506118c38161189d565b92915050565b600080604083850312156118e0576118df611671565b5b60006118ee858286016118b4565b92505060206118ff858286016117ff565b9150509250929050565b60008060006060848603121561192257611921611671565b5b6000611930868287016118b4565b9350506020611941868287016118b4565b9250506040611952868287016117ff565b9150509250925092565b60006020828403121561197257611971611671565b5b6000611980848285016118b4565b91505092915050565b61199281611700565b811461199d57600080fd5b50565b6000813590506119af81611989565b92915050565b600080604083850312156119cc576119cb611671565b5b60006119da858286016118b4565b92505060206119eb858286016119a0565b9150509250929050565b600080fd5b600080fd5b7f4e487b7100000000000000000000000000000000000000000000000000000000600052604160045260246000fd5b611a378261177c565b810181811067ffffffffffffffff82111715611a5657611a556119ff565b5b80604052505050565b6000611a69611667565b9050611a758282611a2e565b919050565b600067ffffffffffffffff821115611a9557611a946119ff565b5b611a9e8261177c565b9050602081019050919050565b82818337600083830152505050565b6000611acd611ac884611a7a565b611a5f565b905082815260208101848484011115611ae957611ae86119fa565b5b611af4848285611aab565b509392505050565b600082601f830112611b1157611b106119f5565b5b8135611b21848260208601611aba565b91505092915050565b60008060008060808587031215611b4457611b43611671565b5b6000611b52878288016118b4565b9450506020611b63878288016118b4565b9350506040611b74878288016117ff565b925050606085013567ffffffffffffffff811115611b9557611b94611676565b5b611ba187828801611afc565b91505092959194509250565b60008060408385031215611bc457611bc3611671565b5b6000611bd2858286016118b4565b9250506020611be3858286016118b4565b9150509250929050565b7f4e487b7100000000000000000000000000000000000000000000000000000000600052602260045260246000fd5b60006002820490506001821680611c3457607f821691505b602082108103611c4757611c46611bed565b5b50919050565b6000606082019050611c626000830186611873565b611c6f602083018561163d565b611c7c6040830184611873565b949350505050565b7f4e487b7100000000000000000000000000000000000000000000000000000000600052601160045260246000fd5b6000611cbe82611633565b91507fffffffffffffffffffffffffffffffffffffffffffffffffffffffffffffffff8203611cf057611cef611c84565b5b600182019050919050565b600081905092915050565b6000611d1182611736565b611d1b8185611cfb565b9350611d2b818560208601611752565b80840191505092915050565b6000611d438285611d06565b9150611d4f8284611d06565b91508190509392505050565b600081519050919050565b600082825260208201905092915050565b6000611d8282611d5b565b611d8c8185611d66565b9350611d9c818560208601611752565b611da58161177c565b840191505092915050565b6000608082019050611dc56000830187611873565b611dd26020830186611873565b611ddf604083018561163d565b8181036060830152611df18184611d77565b905095945050505050565b600081519050611e0b816116a7565b92915050565b600060208284031215611e2757611e26611671565b5b6000611e3584828501611dfc565b91505092915050565b7f4e487b7100000000000000000000000000000000000000000000000000000000600052601260045260246000fd5b6000604082019050611e826000830185611873565b611e8f602083018461163d565b939250505056fea26469706673582212202b57ddd52ca46d0cb15ccbfb9fb16e8ab61781b2560136fcfe7276681bc6be9664736f6c63430008180033",
  "devdoc": {
    "errors": {
      "ERC721IncorrectOwner(address,uint256,address)": [
        {
          "details": "Indicates an error related to the ownership over a particular token. Used in transfers.",
          "params": {
            "owner": "Address of the current owner of a token.",
            "sender": "Address whose tokens are being transferred.",
            "tokenId": "Identifier number of a token."
          }
        }
      ],
      "ERC721InsufficientApproval(address,uint256)": [
        {
          "details": "Indicates a failure with the `operator`s approval. Used in transfers.",
          "params": {
            "operator": "Address that may be allowed to operate on tokens without being their owner.",
            "tokenId": "Identifier number of a token."
          }
        }
      ],
      "ERC721InvalidApprover(address)": [
        {
          "details": "Indicates a failure with the `approver` of a token to be approved. Used in approvals.",
          "params": {
            "approver": "Address initiating an approval operation."
          }
        }
      ],
      "ERC721InvalidOperator(address)": [
        {
          "details": "Indicates a failure with the `operator` to be approved. Used in approvals.",
          "params": {
            "operator": "Address that may be allowed to operate on tokens without being their owner."
          }
        }
      ],
      "ERC721InvalidOwner(address)": [
        {
          "details": "Indicates that an address can't be an owner. For example, `address(0)` is a forbidden owner in EIP-20. Used in balance queries.",
          "params": {
            "owner": "Address of the current owner of a token."
          }
        }
      ],
      "ERC721InvalidReceiver(address)": [
        {
          "details": "Indicates a failure with the token `receiver`. Used in transfers.",
          "params": {
            "receiver": "Address to which tokens are being transferred."
          }
        }
      ],
      "ERC721InvalidSender(address)": [
        {
          "details": "Indicates a failure with the token `sender`. Used in transfers.",
          "params": {
            "sender": "Address whose tokens are being transferred."
          }
        }
      ],
      "ERC721NonexistentToken(uint256)": [
        {
          "details": "Indicates a `tokenId` whose `owner` is the zero address.",
          "params": {
            "tokenId": "Identifier number of a token."
          }
        }
      ]
    },
    "events": {
      "Approval(address,address,uint256)": {
        "details": "Emitted when `owner` enables `approved` to manage the `tokenId` token."
      },
      "ApprovalForAll(address,address,bool)": {
        "details": "Emitted when `owner` enables or disables (`approved`) `operator` to manage all of its assets."
      },
      "Transfer(address,address,uint256)": {
        "details": "Emitted when `tokenId` token is transferred from `from` to `to`."
      }
    },
    "kind": "dev",
    "methods": {
      "approve(address,uint256)": {
        "details": "See {IERC721-approve}."
      },
      "balanceOf(address)": {
        "details": "See {IERC721-balanceOf}."
      },
      "getApproved(uint256)": {
        "details": "See {IERC721-getApproved}."
      },
      "isApprovedForAll(address,address)": {
        "details": "See {IERC721-isApprovedForAll}."
      },
      "name()": {
        "details": "See {IERC721Metadata-name}."
      },
      "ownerOf(uint256)": {
        "details": "See {IERC721-ownerOf}."
      },
      "safeTransferFrom(address,address,uint256)": {
        "details": "See {IERC721-safeTransferFrom}."
      },
      "safeTransferFrom(address,address,uint256,bytes)": {
        "details": "See {IERC721-safeTransferFrom}."
      },
      "setApprovalForAll(address,bool)": {
        "details": "See {IERC721-setApprovalForAll}."
      },
      "supportsInterface(bytes4)": {
        "details": "See {IERC165-supportsInterface}."
      },
      "symbol()": {
        "details": "See {IERC721Metadata-symbol}."
      },
      "tokenURI(uint256)": {
        "details": "See {IERC721Metadata-tokenURI}."
      },
      "transferFrom(address,address,uint256)": {
        "details": "See {IERC721-transferFrom}."
      }
    },
    "version": 1
  },
  "userdoc": {
    "kind": "user",
    "methods": {},
    "version": 1
  },
  "storageLayout": {
    "storage": [
      {
        "astId": 169,
        "contract": "contracts/NFT_ON_LISK.sol:NFT_ON_LISK",
        "label": "_name",
        "offset": 0,
        "slot": "0",
        "type": "t_string_storage"
      },
      {
        "astId": 171,
        "contract": "contracts/NFT_ON_LISK.sol:NFT_ON_LISK",
        "label": "_symbol",
        "offset": 0,
        "slot": "1",
        "type": "t_string_storage"
      },
      {
        "astId": 175,
        "contract": "contracts/NFT_ON_LISK.sol:NFT_ON_LISK",
        "label": "_owners",
        "offset": 0,
        "slot": "2",
        "type": "t_mapping(t_uint256,t_address)"
      },
      {
        "astId": 179,
        "contract": "contracts/NFT_ON_LISK.sol:NFT_ON_LISK",
        "label": "_balances",
        "offset": 0,
        "slot": "3",
        "type": "t_mapping(t_address,t_uint256)"
      },
      {
        "astId": 183,
        "contract": "contracts/NFT_ON_LISK.sol:NFT_ON_LISK",
        "label": "_tokenApprovals",
        "offset": 0,
        "slot": "4",
        "type": "t_mapping(t_uint256,t_address)"
      },
      {
        "astId": 189,
        "contract": "contracts/NFT_ON_LISK.sol:NFT_ON_LISK",
        "label": "_operatorApprovals",
        "offset": 0,
        "slot": "5",
        "type": "t_mapping(t_address,t_mapping(t_address,t_bool))"
      },
      {
        "astId": 2874,
        "contract": "contracts/NFT_ON_LISK.sol:NFT_ON_LISK",
        "label": "currentTokenId",
        "offset": 0,
        "slot": "6",
        "type": "t_uint256"
      }
    ],
    "types": {
      "t_address": {
        "encoding": "inplace",
        "label": "address",
        "numberOfBytes": "20"
      },
      "t_bool": {
        "encoding": "inplace",
        "label": "bool",
        "numberOfBytes": "1"
      },
      "t_mapping(t_address,t_bool)": {
        "encoding": "mapping",
        "key": "t_address",
        "label": "mapping(address => bool)",
        "numberOfBytes": "32",
        "value": "t_bool"
      },
      "t_mapping(t_address,t_mapping(t_address,t_bool))": {
        "encoding": "mapping",
        "key": "t_address",
        "label": "mapping(address => mapping(address => bool))",
        "numberOfBytes": "32",
        "value": "t_mapping(t_address,t_bool)"
      },
      "t_mapping(t_address,t_uint256)": {
        "encoding": "mapping",
        "key": "t_address",
        "label": "mapping(address => uint256)",
        "numberOfBytes": "32",
        "value": "t_uint256"
      },
      "t_mapping(t_uint256,t_address)": {
        "encoding": "mapping",
        "key": "t_uint256",
        "label": "mapping(uint256 => address)",
        "numberOfBytes": "32",
        "value": "t_address"
      },
      "t_string_storage": {
        "encoding": "bytes",
        "label": "string",
        "numberOfBytes": "32"
      },
      "t_uint256": {
        "encoding": "inplace",
        "label": "uint256",
        "numberOfBytes": "32"
      }
    }
  }
}